:020000040800F2
:1000000080080020C1010008510F0008E90B00081A
:100010004D0F0008D5020008BF17000800000000BF
:100020000000000000000000000000002111000896
:10003000FD07000800000000F50F000899120008F5
:10004000DB010008DB010008DB010008DB01000820
:10005000DB010008DB010008DB010008DB01000810
:10006000DB010008DB010008DB010008DB01000800
:10007000DB010008DB010008DB010008DB010008F0
:10008000DB010008DB010008DB010008DB010008E0
:10009000D9020008DB010008DB010008DB010008D1
:1000A000DB010008DB010008DB010008DB010008C0
:1000B000DB010008DB010008DB010008DB010008B0
:1000C000DB010008DB010008DB010008DB010008A0
:1000D000DB010008DB010008DB010008DB01000890
:1000E000DB010008DB010008DB010008DB01000880
:1000F000DB010008DB010008DB010008DB01000870
:10010000DB010008DB010008DB010008DB0100085F
:10011000DB010008DB01000855130008DB010008C3
:10012000DB010008DB010008DB010008DB0100083F
:10013000DB010008DB010008DB010008DB0100082F
:100140001D030008DB010008DB010008DB010008DB
:10015000DB010008DB010008DB010008DB0100080F
:10016000DB010008DB010008DB010008DB010008FF
:10017000DB010008DB010008DB010008DB010008EF
:10018000DB010008DB01000865140008DB01000842
:10019000DB010008DB010008DB010008DB010008CF
:1001A0000000000000000000DB010008DFF80CD0B8
:1001B00000F018F800480047ED19000880080020FA
:1001C0000648804706480047FEE7FEE7FEE7FEE7F1
:1001D000FEE7FEE7FEE7FEE7FEE7FEE79D1200080A
:1001E000AD010008064C074D06E0E06840F0010351
:1001F00094E8070098471034AC42F6D3FFF7DAFFD3
:10020000701A0008901A00082DE9F04706460F46BC
:10021000904699464FF0000A00250024AA22204665
:10022000641C2A490A5401222046641C0A54AF2245
:100230002046641C0A54F1222046641C0A54002201
:100240002046641C0A5432122046641C0A5472B2BE
:100250002046641C0A543A122046641C0A547AB29E
:100260002046641C0A544FEA28222046641C0A5483
:100270004FFA88F22046641C0A544FEA292220468D
:10028000641C0A544FFA89F22046641C0A54601F09
:1002900040B2087100BF05E00C48405D50444FFA81
:1002A00080FA6D1CA542F7DB2046641C074901F863
:1002B00000A0002505E00548415D054801F070FA01
:1002C0006D1CA542F7DBBDE8F08700008C01002023
:1002D0000044004000BFFEE700B587B002210E4891
:1002E00000F08CF8A8B102AA00210B4800F016F922
:1002F0000698009002A80FC800F054FD06980090E0
:1003000002A80FC800F092FD0221034800F022F875
:1003100000BF07B000BD00000064004000B587B01A
:1003200002210B4800F06AF878B102AA00210848BF
:1003300000F0F4F80698009002A80FC800F0E8FA60
:100340000221034800F006F800BF07B000BD00001E
:1003500000680040B1F5007F3AD00FDC202928D09A
:1003600006DC01291CD004291DD0082940D11DE03C
:10037000402921D0B1F5807F3AD126E0B1F5004F78
:1003800031D006DCB1F5806F25D0B1F5006F2FD1EB
:1003900024E0B1F5803F12D0B1F5003F28D111E043
:1003A000154A826025E00822C26022E01022C26065
:1003B0001FE0082202611CE01022026119E00822FD
:1003C000426016E01022426013E00422426010E016
:1003D000042242600DE0042242600AE000228261B1
:1003E0000422426005E0002282610422426000E0B3
:1003F00000BF00BF704700000101010070B5044656
:100400000D46002660692840002871D0B5F5807F30
:100410005CD010DC082D35D006DC012D20D0022D5B
:1004200024D0042D72D127E0102D31D0202D35D0CD
:10043000402D6BD138E0B5F5004F60D009DCB5F543
:10044000007F49D0B5F5806F4CD0B5F5006F5DD118
:100450004FE0B5F5803F2DD0B5F5003F56D12FE0E8
:10046000A0682D4900F0D2F8064651E0E06803216B
:1004700000F0CCF806464BE0E068082100F0C6F832
:10048000064645E0E068102100F0C0F806463FE06F
:100490002069032100F0BAF8064639E020690821F6
:1004A00000F0B4F8064633E02069102100F0AEF801
:1004B00006462DE06068082100F0A8F8064627E00F
:1004C0006068102100F0A2F8064621E0A069012131
:1004D00000F09CF806461BE0A069022100F096F8A7
:1004E000064615E0A069042100F090F806460FE0EA
:1004F0000FE0A069702100F089F8064608E0606806
:10050000042100F083F8064602E0FFE7002600BF62
:1005100000E00026304670BD0101010010B500F575
:10052000D87303EB01131B6803F004031372137AEF
:1005300053B900F5D87303EB01131B6840F2FF7445
:1005400004EA5353136009E000F5D87303EB011379
:100550001B686FF0604404EAD303536000F5D8735E
:1005600003EB01131B6803F00203537200F5D87309
:1005700003EB01135B6803F00F03937200F5D8736C
:1005800003EB01135B681B0AD37400F5D87303EB0C
:1005900001139B68D37200F5D87303EB01139B68BA
:1005A0001C0A147300F5D87303EB01139B681C0C31
:1005B000547300F5D87303EB01139B681B0E937300
:1005C00000F5D87303EB0113DB68D37300F5D87320
:1005D00003EB0113DB681C0A147400F5D87303EBFA
:1005E0000113DB681C0C547400F5D87303EB011382
:1005F000DB681B0E937421B9C36843F02003C3600A
:1006000003E0036943F02003036110BD02460020AC
:1006100002EA01030BB1012000E00020704721B184
:10062000026842F00102026003E0026822F0010267
:1006300002607047016821F0010101600021016042
:1006400041608160C1600161212141614A49884264
:1006500004D13D21484A103A91608CE04649183156
:10066000884205D14FF47461434A103A916082E0A8
:1006700041493031884205D14FF474113E4A103A55
:10068000916078E03C494831884205D14FF074616F
:10069000394A103A91606EE037496031884204D19E
:1006A0003649354A103AD16065E03349783188429D
:1006B00004D13349304A103AD1605CE02E49903180
:1006C000884204D12F492C4A103AD16053E02A497C
:1006D000A831884205D14FF03D51274A103AD160E8
:1006E00049E02949884204D13D21274A083A11604E
:1006F00041E025491831884205D14FF47461224AFE
:10070000083A116037E020493031884205D14FF472
:1007100074111D4A083A11602DE01B494831884286
:1007200005D14FF07461184A083A116023E0164968
:100730006031884204D11149134A121F11601AE036
:1007400011497831884204D10D490F4A121F1160B6
:1007500011E00D499031884204D10A490A4A121F1A
:10076000116008E00849A831884204D14FF03D519A
:10077000054A121F11607047106002403D000020C2
:10078000400F002000003D20106402400146002080
:100790000A6802F001020AB1012000E0002070475F
:1007A00010B500220268134B1A40CC680B68234333
:1007B0004C6923438C692343CC6923430C6A23434C
:1007C0004C6A23438C6A23434C6B23438C6B234337
:1007D0001A430260426922F00702D1E90B34234335
:1007E0001A4342610B6943604B6883608B68C36046
:1007F00010BD00003F801CF0416070477047D0ED95
:10080000000A91ED001A30EEC11AD1ED000A40EE57
:10081000010AC1ED000A7047F0B50A460021002325
:10082000002400BF3DE0012505FA01F3156805EA43
:1008300003049C4234D105684F000326BE40B543F3
:10084000056015794E00B540066835430560157999
:10085000012D02D01579022D16D185684F0003268F
:10086000BE40B543856055794E00B5408668354336
:100870008560456801268E40B54345604568967998
:100880008E40B6B235434560C5684F000326BE4072
:10089000B543C560D5794E00B540C6683543C560DF
:1008A000491C1029BFD3F0BDF0B5002300244D072B
:1008B000ED0E02FA05F3CE1000F1200555F8265092
:1008C0004E07F70E0F26BE40B543CF1000F12006AD
:1008D00046F82750CE1000F1200555F8265045EA7D
:1008E0000304CE1000F1200545F82640F0BD024675
:1008F000002013690B400BB1012000E0002070477D
:10090000418370470183704742694A4042617047A2
:100910000FB440F21341009888427CD14D48DDF875
:100920000B100160DDF80F104160008800EE100A26
:10093000B8EE400ADFED480A80EE201A474880ED05
:10094000051A4448B0F9020000EE100AB8EEC00AD9
:10095000424880ED020A3F48B0F9040000EE100A58
:10096000B8EEC00ADFED3C0A80EE201A3B4880ED6D
:10097000041A3848B0F9060000EE100AB8EEC00AB2
:10098000364880ED000A90ED020AB5EEC00AF1EE9D
:1009900010FA02DD90ED020A04E0304890ED020A00
:1009A000B1EE400AF0EE000AB4EEE00AF1EE10FA01
:1009B00009D200202749488000EE100AB8EEC00A8C
:1009C000264880ED020A254890ED050AD0ED060A7A
:1009D00030EE600ADFED220AB4EEE00AF1EE10FA22
:1009E00004D2008C401C00B21C4908841B4890EDC6
:1009F000060AD0ED050A30EE600ADFED190AB4EE02
:100A0000E00AF1EE10FA04D2008C401E00B2134945
:100A10000884124800E01AE0D0ED050A008C4FF47B
:100A2000B47110FB01F000EE100AB8EEC00A30EE0F
:100A3000800A0A4880ED070A90ED050A80ED060A53
:100A4000808C401C05498884012081F8230004B073
:100A5000704700006C0400200000C8421C04002005
:100A6000000096C310B50446204600F043F800EE9F
:100A7000100AB8EEC00A0F4880ED000A90ED000A97
:100A80000D48D0ED000A30EE600A0C4880ED000AF7
:100A900090ED000ADFED0A0A80EE201A80ED001AC0
:100AA0009FED080A0849FFF7AAFE044890ED000AE6
:100AB00010BD000000000020080000200C000020F5
:100AC00048A13B44CDCCCC3E1000002010B50A20FC
:100AD00000F010F800EE100AB8EEC00A044880EDED
:100AE000000A90ED000ABDEEC00A10EE100A10BD1B
:100AF0000400002070B504460025002603E000F045
:100B000007F80544761CA642F9DB95FBF4F070BDAE
:100B100070B5002400BF02211D48FFF7E8FE002841
:100B2000F9D1012000F02AFF01211948FFF7E8FE62
:100B3000002519E0012000F021FF01211448FFF7F2
:100B4000E1FE6400012000F019FF01211048FFF7C9
:100B5000D7FE02210E48FFF7CAFE00B1641C012037
:100B600000F00CFF681C85B2182DE3DB012108485A
:100B7000FFF7C8FE84F40004012000F0FFFE01210D
:100B80000348FFF7BDFE012000F0F8FE204670BDCF
:100B9000000402401CB50121022000F02DFA0120C2
:100BA00000908DF8040000208DF806008DF80500F7
:100BB00002208DF8070069460A48FFF72DFE012143
:100BC000102000F019FA0220009000208DF8040097
:100BD0008DF805008DF8070069460248FFF71CFEF6
:100BE0001CBD00000004024000BFFEE710B500F08D
:100BF0001DF8FFF7CFFF4FF4E13000F059FC34212E
:100C0000054800F0A7FC05A000F02EFE42F20F718F
:100C1000592000F077FB10BD48000020B2E2CAD492
:100C2000C0FDB3CC2121210A000000001CB5012128
:100C3000702000F0E1F901208DF8040000208DF80B
:100C400006008DF8050001208DF807004002009095
:100C500069465148FFF7E0FD4FF400714E48FFF739
:100C600051FE4FF48060009069464B48FFF7D4FD79
:100C70004FF480614848FFF745FE4FF40060009054
:100C800069464548FFF7C8FD4FF400614248FFF749
:100C900039FE4FF48050009069463F48FFF7BCFD95
:100CA0004FF480513C48FFF72DFE4FF40050009068
:100CB00069463948FFF7B0FD4FF400513648FFF759
:100CC00021FE4FF48040009069463348FFF7A4FDB1
:100CD0004FF480413048FFF715FE4FF4004000907C
:100CE00069462D48FFF798FD4FF400412A48FFF769
:100CF00009FE8020009069462748FFF78DFD80217E
:100D00002648FFF7FDFD0420009069462448FFF7C0
:100D100083FD04212248FFF7F5FD08200090694675
:100D20001F48FFF779FD08211D48FFF7EBFD102054
:100D3000009069461A48FFF76FFD10211848FFF729
:100D4000E1FD2020009069461548FFF765FD202150
:100D50001348FFF7D7FD4020009069461048FFF781
:100D60005BFD40210E48FFF7CDFD802000906946D5
:100D70000B48FFF751FD80210948FFF7C3FD4FF4F1
:100D80008070009069460648FFF746FD4FF4807179
:100D90000348FFF7B7FD1CBD0010024000140240DD
:100DA000001802400FB40099B1F5007F03D90099F3
:100DB000B1F5017F01D904B070470099A1F201207B
:100DC0009DF80C109DF80B2041EA022100EB001267
:100DD000154B23F822109DF80E209DF80D1042EAC5
:100DE000012109B200EB001203EB820251809DF851
:100DF00010209DF80F1042EA012109B200EB001209
:100E000003EB820291809DF8111000EB001203EBBE
:100E100082029171012100EB001203EB820282F841
:100E20003C1000BFC7E700007C0000200FB4009911
:100E3000B1F5017F03D90099B1F5027F01D304B068
:100E400070470099A1F205209DF80C109DF80B2029
:100E500041EA02213B4A02EBC01211809DF80E20AC
:100E60009DF80D1042EA012109B2364A02EBC01288
:100E700051809DF810209DF80F1042EA012109B21F
:100E8000304A02EBC01291809DF811102D4A02EBFE
:100E9000C012D1802B4901EBC0110988294A02EB0D
:100EA000C012128B891A284A914209DA254901EBAE
:100EB000C011498B491C09B2224A02EBC01251836E
:100EC000204901EBC011098B1E4A02EBC0121288A7
:100ED000891A1D4A914209DA1A4901EBC011498B5E
:100EE000491E09B2174A02EBC0125183154901EBA2
:100EF000C0110988134A02EBC0121183114901EB9A
:100F0000C01109880F4A02EBC012528B4FF40053F4
:100F100013FB02110B4A02EBC012D161094901EB2C
:100F2000C011B1F87A10491C064A02EBC012A2F8AF
:100F30007A100121034A02EBC01282F8781000BF38
:100F40007DE700009C01002090E8FFFF00BFFEE766
:100F50007047F8B506460C461546F0B28DF800000D
:100F6000E0B28DF80100E8B28DF8020001208DF8A2
:100F70000300684600F002F8F8BD000070B50021DB
:100F800000230F22C4781CB3174C246804F4E064D7
:100F9000C4F5E064C4F30721C1F10404E3B20A41DB
:100FA00044789C40E1B28478144021430C07210E20
:100FB0000E4C05786155047804F01F050124AC40FF
:100FC00005786D11AD0005F1E025C5F8004109E097
:100FD000047804F01F050124AC40054D0678761115
:100FE00045F8264070BD00000CED00E000E400E094
:100FF00080E100E07047000029B1064A1268024310
:10100000044B1A6004E0034A12688243014B1A60E1
:10101000704700003038024029B1064A1268024386
:10102000044B1A6004E0034A12688243014B1A60C1
:101030007047000040380240F0B500210022002433
:10104000022500260223324F3F6807F00C0121B130
:10105000042905D0082937D105E02E4F076036E076
:101060002D4F076033E02A4F3F1F3F68C7F380567C
:10107000274F3F1F3F6807F03F036EB1264FB7FB76
:10108000F3F7DFF88CC0ACF1040CDCF800C0CCF353
:10109000881C07FB0CF40CE01E4FB7FBF3F7DFF8DE
:1010A00070C0ACF1040CDCF800C0CCF3881C07FB6A
:1010B0000CF4174F3F1F3F68C7F301477F1C7D00AB
:1010C000B4FBF5F7076002E0124F076000BF00BFF6
:1010D0000F4F3F6807F0F0010909104F7A5C07686D
:1010E000D74047600A4F3F6807F4E051890A0B4F29
:1010F0007A5C4768D7408760054F3F6807F46041D6
:10110000490B064F7A5C4768D740C760F0BD0000C6
:10111000083802400024F400001BB7001D00002026
:10112000704700000CB50020019000904148006815
:1011300040F480303F49086000BF3E48006800F43A
:10114000003000900198401C0190009818B9019857
:10115000B0F5A04FF1D13748006800F4003010B16D
:101160000120009001E0002000900098012860D14B
:1011700030484030006840F080502E4940310860CF
:101180002D48006840F440402B4908602948083049
:1011900000682849083108600846006840F40040AB
:1011A00008600846006840F4A05008602348091F02
:1011B0000860081F006840F08070091F086000BFC9
:1011C0001C48006800F000700028F9D01A48006838
:1011D00040F480301849086000BF1748406800F4A8
:1011E00080300028F9D01448006840F400301249DB
:1011F000086000BF1048406800F400300028F9D0B3
:1012000040F205700E4908600A480830006820F076
:1012100003000849083108600846006840F00200F1
:10122000086000BF03480830006800F00C00082880
:10123000F8D10CBD00380240007000400C5A400745
:10124000003C024030B50146481EB0F1807F01D31A
:10125000012030BD481E4FF0E022506150170F2290
:10126000002807DA13071D0E094B00F00F04241F96
:101270001D5503E013071C0E064B1C5400BF002035
:101280004FF0E0229061072010610020E1E70000AC
:1012900018ED00E000E400E07047000010B51548CC
:1012A000006840F47000134908601348006840F07B
:1012B00001001149086000200F49083108600E48FC
:1012C00000680E4908400C4908600D48091D086077
:1012D000081F006820F48020091F086000200649CC
:1012E0000C310860FFF71EFF4FF0006001498039A4
:1012F000086010BD88ED00E000380240FFFFF6FEF8
:10130000103000243EB505460C4601211020FFF7A1
:1013100083FEADF8005001940020ADF80800ADF850
:10132000020069460A4800F05BF80121084800F015
:1013300021F80121064800F02CF80122114604484A
:1013400000F044F8002201213620FFF702FE3EBDE6
:101350000010004010B50121054800F026F828B122
:1013600000F030FA0121024800F010F810BD000032
:101370000010004021B1028842F08002028004E0A7
:1013800002884FF67F731A4002807047CA43028278
:10139000704721B1028842F00102028004E0028815
:1013A0004FF6FE731A400280704730B502460020A7
:1013B00000230024158A05EA0103958905EA010442
:1013C00013B10CB1012000E0002030BD1AB18389B7
:1013D0000B43838102E083898B4383817047000044
:1013E00000220288184B98420ED0184B98420BD01E
:1013F000B0F1804F08D0164B984205D0154B98425B
:1014000002D0154B984204D14FF68F731A404B8887
:101410001A43124B984207D0114B984204D04FF612
:10142000FF431A400B891A4302804B68C3620B8842
:101430000385054B984202D0044B984201D18B7A28
:1014400003860123838270470000014000040140AD
:101450000004004000080040000C00400010004064
:101460000014004010B540F224410D4800F0DAF8B5
:10147000A0B100210B48FFF7D2F80B490BA000F0F8
:10148000F3F934210748FFF7B7F901210548FFF7C1
:10149000C6F80348001D00880148008810BD000000
:1014A000007800405860024048000020257300008A
:1014B00010B586B0044601211020FFF79DFD0121E3
:1014C0008807FFF7A9FD00208DF8160001208DF890
:1014D000170002208DF815008DF81400C00104904B
:1014E00004A91A48FFF798F98020049004A9174826
:1014F000FFF792F9082211461448FFF7D5F90822A0
:1015000007211248FFF7D0F900940020ADF804003D
:10151000ADF80600ADF80800ADF80C000C20ADF8F1
:101520000A0069460A4800F0CDF803220021522043
:10153000FFF70FFD012240F22441054800F09CF81E
:101540000121034800F04CF806B010BD0010024025
:101550000078004030B58FB004460D4601214805A3
:10156000FFF74AFD1C48FFF765F800BF1A48FFF770
:101570000DF90028FAD14FF0206000901748019033
:10158000029400200390049505904FF4806006902B
:101590000020079008904FF48070099000020A9094
:1015A00000200B900C900D900E9069460A48FFF7B2
:1015B000F7F801210848FFF732F800BF0648FFF7A7
:1015C000E5F80128FAD1012240210448001F00F06B
:1015D00013F80FB030BD000058600240047800409E
:1015E00021B1828942F40052828104E082894DF661
:1015F000FF731A40828170471AB1838A0B4383823A
:1016000002E0838A8B438382704702460020B1F553
:10161000007F00D100BF13880B400BB1012000E018
:101620000020704770B502460024002300250020EA
:1016300040F66A16B14200D100BFC1F3421501F075
:101640001F03012606FA03F3012D02D196893340C8
:1016500006E0022D02D1168A334001E0968A33401B
:101660000C12012606FA04F41688344013B10CB1AA
:10167000012000E0002070BDF0B5034600240026E4
:101680000025002040F66A17B94200D100BF184675
:10169000C1F3421401F01F06012707FA06F5012CD9
:1016A00001D10C3004E0022C01D1103000E01430E4
:1016B0001AB107682F43076002E00768AF4307606D
:1016C000F0BD00002DE9FF4705460E460024A14667
:1016D00000BFA046B08900B100BF2C8A24F440545A
:1016E000F08804432C82AC8941F20C608443B088BA
:1016F00031890843718908430443AC81AC8A24F4DE
:101700004074B0890443AC826846FFF795FC2048DA
:10171000854202D01F48854202D1DDF80C9001E0DD
:10172000DDF80890A88900F4004040B109EBC90039
:1017300000EB091031684900B0FBF1F707E009EB55
:10174000C90000EB091031688900B0FBF1F7642093
:10175000B7FBF0F004012009642101FB1078A8898F
:1017600000F4004040B1322000EBC800B0FBF1F0C3
:1017700000F00700044308E0322000EB0810642169
:10178000B0FBF1F000F00F0004432C81BDE8FF87AF
:101790000010014000140140C1F30802828070472C
:1017A00070B504460D4629462046FFF7F5FF00BFF9
:1017B00080212046FFF729FF0028F9D070BD00BF27
:1017C000FEE7000010B526480078462803DB01201C
:1017D0002349087004E022480078401C2049087022
:1017E0001F480078282820D006DC0A280BD01428AF
:1017F0000FD01E2831D112E032281CD03C2820D036
:1018000046282AD123E04FF400711648FFF77CF8F0
:1018100023E04FF480611348FFF776F81DE04FF4A2
:1018200000611048FFF770F817E04FF480510D4841
:10183000FFF76AF811E04FF400510A48FFF764F827
:101840000BE04FF480410748FFF75EF805E04FF4E6
:1018500000410448FFF758F800BF00BF10BD00006A
:1018600014000020001002400FB4054B10B503A96E
:10187000044A029800F017F810BC5DF814FB000051
:10188000C51900084400002002E008C8121F08C162
:10189000002AFAD170477047002001E001C1121FF1
:1018A000002AFBD170472DE9F84F994692468846A9
:1018B0000546002706E025280AD051464A469047AB
:1018C0006D1C7F1C28780028F5D13846BDE8F88FBC
:1018D000002315F8011F18462E2915D115F8011FF0
:1018E00004232A290DD06FF02F022978A1F13004AA
:1018F000092C09D800EB800002EB400008446D1C65
:10190000F3E758F8040B6D1C2A78002ADDD0632A0F
:1019100007D0732A0FD0104651464A4690477F1C85
:101920002AE018F8042B8DF8002000218DF8011012
:101930006E46012103E058F8046B4FF0FF315A075F
:101940004FF0000401D409E0641C84420BDA8C429D
:10195000FADB325D002AF7D105E0641C8C42FCDB27
:10196000305D0028F9D1274404E016F8010B5146F8
:101970004A469047641EF8D26D1CA3E770B5044632
:101980000E4800680E49B0FBF1F52846FFF75AFCF7
:10199000002008E000BF4FF0E021096901F4803128
:1019A0000029F8D0401CA042F4D34FF0E020006999
:1019B00020F001004FF0E021086170BD30000020F0
:1019C00040420F0070B504460D46E1B2064800687B
:1019D000FFF7E2FE00BF802103480068FFF715FE15
:1019E0000028F8D0204670BD18000020FFF7FEF850
:1019F000FFF76CF800EE100AB8EEC00A164880ED4A
:101A0000000A27E015A0FFF72FFF1420FFF72AF8A0
:101A1000144890ED000ABDEEC00A10EE100A03B2A1
:101A2000114890ED000ABDEEC00A10EE100A02B295
:101A30000E4890ED000ABDEEC00A10EE100A01B289
:101A4000054890ED000ABDEEC00A10EE100A00B283
:101A5000FEF7DAFBD6E70000080000206E6D736C1D
:101A60000A000000100000200C00002004000020EC
:101A7000901A0008000000204800000088180008A4
:101A8000D81A0008480000203808000098180008FC
:101A90000000000000000000000000000000000046
:101AA000000000000100000000780040000000007D
:101AB00000010203040102030406070809000000F4
:101AC0000095BA0A000000000000000001020304B3
:081AD0000607080900000000F0
:04000005080001C12D
:00000001FF
