:020000040800F2
:1000000040080020C1010008D90C0008650900085B
:10001000D50C000809020008B51600080000000011
:10002000000000000000000000000000C90E0008F1
:1000300031070008000000007D0D0008ED0F0008EA
:10004000DB010008DB010008DB010008DB01000820
:10005000DB010008DB010008DB010008DB01000810
:10006000DB010008DB010008DB010008DB01000800
:10007000DB010008DB010008DB010008DB010008F0
:10008000DB010008DB010008DB010008DB010008E0
:100090000D020008DB010008DB010008DB0100089D
:1000A000DB010008DB010008DB010008DB010008C0
:1000B000DB010008DB010008DB010008DB010008B0
:1000C000DB010008DB010008DB010008DB010008A0
:1000D000DB010008DB010008DB010008DB01000890
:1000E000DB010008DB010008DB010008DB01000880
:1000F000DB010008DB010008DB010008DB01000870
:10010000DB010008DB010008DB010008DB0100085F
:10011000DB010008DB010008A9100008DB01000872
:10012000DB010008DB010008DB010008DB0100083F
:10013000DB010008DB010008DB010008DB0100082F
:1001400051020008DB010008DB010008DB010008A8
:10015000DB010008DB010008DB0100085513000883
:10016000DB010008DB010008DB010008DB010008FF
:10017000DB010008DB010008DB010008DB010008EF
:10018000DB010008DB010008DB010008DB010008DF
:10019000DB010008DB010008DB010008DB010008CF
:1001A0000000000000000000DB010008DFF80CD0B8
:1001B00000F018F800480047211800084008002007
:1001C0000648804706480047FEE7FEE7FEE7FEE7F1
:1001D000FEE7FEE7FEE7FEE7FEE7FEE7F10F0008B9
:1001E000AD010008064C074D06E0E06840F0010351
:1001F00094E8070098471034AC42F6D3FFF7DAFFD3
:10020000281800084818000800BFFEE700B587B0AE
:1002100002210E4800F08CF8A8B102AA00210B4878
:1002200000F016F90698009002A80FC800F07EFCB6
:100230000698009002A80FC800F0BCFC02210348F9
:1002400000F022F800BF07B000BD000000640040CD
:1002500000B587B002210B4800F06AF878B102AA15
:100260000021084800F0F4F80698009002A80FC892
:1002700000F0CEFA0221034800F006F800BF07B0F4
:1002800000BD000000680040B1F5007F3AD00FDCEF
:10029000202928D006DC01291CD004291DD00829DA
:1002A00040D11DE0402921D0B1F5807F3AD126E030
:1002B000B1F5004F31D006DCB1F5806F25D0B1F536
:1002C000006F2FD124E0B1F5803F12D0B1F5003F8F
:1002D00028D111E0154A826025E00822C26022E0A0
:1002E0001022C2601FE0082202611CE0102202619D
:1002F00019E00822426016E01022426013E0042256
:10030000426010E0042242600DE0042242600AE0F4
:10031000002282610422426005E000228261042200
:10032000426000E000BF00BF704700000101010013
:1003300070B504460D46002660692840002871D03B
:10034000B5F5807F5CD010DC082D35D006DC012DA2
:1003500020D0022D24D0042D72D127E0102D31D0D1
:10036000202D35D0402D6BD138E0B5F5004F60D051
:1003700009DCB5F5007F49D0B5F5806F4CD0B5F5F7
:10038000006F5DD14FE0B5F5803F2DD0B5F5003F52
:1003900056D12FE0A0682D4900F0D2F8064651E072
:1003A000E068032100F0CCF806464BE0E068082145
:1003B00000F0C6F8064645E0E068102100F0C0F8FD
:1003C00006463FE02069032100F0BAF8064639E00E
:1003D0002069082100F0B4F8064633E020691021B6
:1003E00000F0AEF806462DE06068082100F0A8F89D
:1003F000064627E06068102100F0A2F8064621E0DA
:10040000A069012100F09CF806461BE0A0690221CA
:1004100000F096F8064615E0A069042100F090F877
:1004200006460FE00FE0A069702100F089F806464B
:1004300008E06068042100F083F8064602E0FFE768
:10044000002600BF00E00026304670BD010101001B
:1004500010B500F5D87303EB01131B6803F0040318
:100460001372137A53B900F5D87303EB01131B68A9
:1004700040F2FF7404EA5353136009E000F5D873A7
:1004800003EB01131B686FF0604404EAD30353606D
:1004900000F5D87303EB01131B6803F002035372DA
:1004A00000F5D87303EB01135B6803F00F0393723D
:1004B00000F5D87303EB01135B681B0AD37400F5D6
:1004C000D87303EB01139B68D37200F5D87303EB69
:1004D00001139B681C0A147300F5D87303EB011316
:1004E0009B681C0C547300F5D87303EB01139B68D5
:1004F0001B0E937300F5D87303EB0113DB68D37302
:1005000000F5D87303EB0113DB681C0A147400F5C3
:10051000D87303EB0113DB681C0C547400F5D8731B
:1005200003EB0113DB681B0E937421B9C36843F01E
:100530002003C36003E0036943F02003036110BD9F
:100540000246002002EA01030BB1012000E0002076
:10055000704721B1026842F00102026003E00268C4
:1005600022F0010202607047016821F00101016080
:100570000021016041608160C16001612121416110
:100580004A49884204D13D21484A103A91608CE0A2
:1005900046491831884205D14FF47461434A103AF4
:1005A000916082E041493031884205D14FF47411A5
:1005B0003E4A103A916078E03C494831884205D182
:1005C0004FF07461394A103A91606EE037496031FA
:1005D000884204D13649354A103AD16065E0334942
:1005E0007831884204D13349304A103AD1605CE016
:1005F0002E499031884204D12F492C4A103AD160BB
:1006000053E02A49A831884205D14FF03D51274A8D
:10061000103AD16049E02949884204D13D21274A56
:10062000083A116041E025491831884205D14FF45C
:100630007461224A083A116037E02049303188421B
:1006400005D14FF474111D4A083A11602DE01B4981
:100650004831884205D14FF07461184A083A116058
:1006600023E016496031884204D11149134A121F10
:1006700011601AE011497831884204D10D490F4ABE
:10068000121F116011E00D499031884204D10A49CE
:100690000A4A121F116008E00849A831884204D1B3
:1006A0004FF03D51054A121F116070471060024023
:1006B0003D000020400F002000003D20106402405B
:1006C000014600200A6802F001020AB1012000E0A0
:1006D0000020704710B500220268134B1A40CC6806
:1006E0000B6823434C6923438C692343CC69234320
:1006F0000C6A23434C6A23438C6A23434C6B234389
:100700008C6B23431A430260426922F00702D1E94D
:100710000B3423431A4342610B6943604B68836087
:100720008B68C36010BD00003F801CF041607047C3
:100730007047F0B50A4600210023002400BF3DE0C9
:10074000012505FA01F3156805EA03049C4234D13A
:1007500005684F000326BE40B543056015794E007D
:10076000B5400668354305601579012D02D015792D
:10077000022D16D185684F000326BE40B543856023
:1007800055794E00B5408668354385604568012639
:100790008E40B5434560456896798E40B6B2354384
:1007A0004560C5684F000326BE40B543C560D57996
:1007B0004E00B540C6683543C560491C1029BFD3FB
:1007C000F0BDF0B5002300244D07ED0E02FA05F34D
:1007D000CE1000F1200555F826504E07F70E0F26D3
:1007E000BE40B543CF1000F1200646F82750CE108A
:1007F00000F1200555F8265045EA0304CE1000F11B
:10080000200545F82640F0BD4183704701837047BD
:100810000FB440F21341009888427CD14D48DDF876
:100820000B100160DDF80F104160008800EE100A27
:10083000B8EE400ADFED480A80EE201A474880ED06
:10084000051A4448B0F9020000EE100AB8EEC00ADA
:10085000424880ED020A3F48B0F9040000EE100A59
:10086000B8EEC00ADFED3C0A80EE201A3B4880ED6E
:10087000041A3848B0F9060000EE100AB8EEC00AB3
:10088000364880ED000A90ED020AB5EEC00AF1EE9E
:1008900010FA02DD90ED020A04E0304890ED020A01
:1008A000B1EE400AF0EE000AB4EEE00AF1EE10FA02
:1008B00009D200202749488000EE100AB8EEC00A8D
:1008C000264880ED020A254890ED050AD0ED060A7B
:1008D00030EE600ADFED220AB4EEE00AF1EE10FA23
:1008E00004D2008C401C00B21C4908841B4890EDC7
:1008F000060AD0ED050A30EE600ADFED190AB4EE03
:10090000E00AF1EE10FA04D2008C401E00B2134946
:100910000884124800E01AE0D0ED050A008C4FF47C
:10092000B47110FB01F000EE100AB8EEC00A30EE10
:10093000800A0A4880ED070A90ED050A80ED060A54
:10094000808C401C05498884012081F8230004B074
:1009500070470000300400200000C842E00300207F
:10096000000096C300BFFEE710B500F019F84FF481
:10097000E13000F015FD3421064800F06BFD06A1C2
:10098000064800F099FE42F20F71592000F064FB16
:1009900010BD00001C000020533145000014014030
:1009A0001CB50121702000F0EBF901208DF8040046
:1009B00000208DF806008DF8050001208DF8070055
:1009C0004002009069465648FFF7B3FE4FF40071AD
:1009D0005348FFF71BFF4FF4806000906946504872
:1009E000FFF7A7FE4FF480614D48FFF70FFF4FF46C
:1009F0000060009069464A48FFF79BFE4FF4006193
:100A00004748FFF703FF4FF4805000906946444881
:100A1000FFF78FFE4FF480514148FFF7F7FE4FF488
:100A20000050009069463E48FFF783FE4FF40051A6
:100A30003B48FFF7EBFE4FF4804000906946384892
:100A4000FFF777FE4FF480413548FFF7DFFE4FF4A4
:100A50000040009069463248FFF76BFE4FF40041BA
:100A60002F48FFF7D3FE8020009069462C48FFF7FF
:100A700060FE80212B48FFF7C7FE042000906946E6
:100A80002948FFF756FE04212748FFF7BFFE08203C
:100A9000009069462448FFF74CFE08212248FFF7E2
:100AA000B5FE1020009069461F48FFF742FE102156
:100AB0001D48FFF7ABFE2020009069461A48FFF75B
:100AC00038FE20211848FFF7A1FE4020009069461B
:100AD0001548FFF72EFE40211348FFF797FE8020B0
:100AE000009069461048FFF724FE80210E48FFF76A
:100AF0008DFE4FF48070009069460B48FFF719FE99
:100B00004FF480710848FFF781FE0220009069468B
:100B10000548FFF70EFE02210348FFF777FE1CBDD4
:100B20000010024000140240001802400FB4009967
:100B3000B1F5007F03D90099B1F5017F01D904B067
:100B400070470099A1F201209DF80C109DF80B2030
:100B500041EA022100EB0012154B23F822109DF808
:100B60000E209DF80D1042EA012109B200EB00129F
:100B700003EB820251809DF810209DF80F1042EA8D
:100B8000012109B200EB001203EB820291809DF873
:100B9000111000EB001203EB82029171012100EBB6
:100BA000001203EB820282F83C1000BFC7E700008E
:100BB000500000200FB40099B1F5017F03D90099CE
:100BC000B1F5027F01D304B070470099A1F205206E
:100BD0009DF80C109DF80B2041EA02213B4A02EBE4
:100BE000C01211809DF80E209DF80D1042EA0121DF
:100BF00009B2364A02EBC01251809DF810209DF8D0
:100C00000F1042EA012109B2304A02EBC012918072
:100C10009DF811102D4A02EBC012D1802B4901EB37
:100C2000C0110988294A02EBC012128B891A284A7E
:100C3000914209DA254901EBC011498B491C09B2DF
:100C4000224A02EBC0125183204901EBC011098BEB
:100C50001E4A02EBC0121288891A1D4A914209DA13
:100C60001A4901EBC011498B491E09B2174A02EB20
:100C7000C0125183154901EBC0110988134A02EBD8
:100C8000C0121183114901EBC01109880F4A02EB10
:100C9000C012528B4FF4005313FB02110B4A02EBAC
:100CA000C012D161094901EBC011B1F87A10491C99
:100CB000064A02EBC012A2F87A100121034A02EBA5
:100CC000C01282F8781000BF7DE7000060010020AC
:100CD00090E8FFFF00BFFEE77047F8B506460C46F8
:100CE0001546F0B28DF80000E0B28DF80100E8B2D0
:100CF0008DF8020001208DF80300684600F002F82C
:100D0000F8BD000070B5002100230F22C4781CB389
:100D1000174C246804F4E064C4F5E064C4F30721CC
:100D2000C1F10404E3B20A4144789C40E1B2847802
:100D3000144021430C07210E0E4C057861550478B0
:100D400004F01F050124AC4005786D11AD0005F1DC
:100D5000E025C5F8004109E0047804F01F050124EE
:100D6000AC40054D0678761145F8264070BD000070
:100D70000CED00E000E400E080E100E070470000DE
:100D800029B1064A12680243044B1A6004E0034A80
:100D900012688243014B1A607047000030380240ED
:100DA00029B1064A12680243044B1A6004E0034A60
:100DB00012688243014B1A607047000040380240BD
:100DC00029B1064A12680243044B1A6004E0034A40
:100DD00012688243014B1A60704700004438024099
:100DE000F0B5002100220024022500260223324F04
:100DF0003F6807F00C0121B1042905D0082937D13B
:100E000005E02E4F076036E02D4F076033E02A4F94
:100E10003F1F3F68C7F38056274F3F1F3F6807F0CB
:100E20003F036EB1264FB7FBF3F7DFF88CC0ACF190
:100E3000040CDCF800C0CCF3881C07FB0CF40CE0BD
:100E40001E4FB7FBF3F7DFF870C0ACF1040CDCF811
:100E500000C0CCF3881C07FB0CF4174F3F1F3F6802
:100E6000C7F301477F1C7D00B4FBF5F7076002E084
:100E7000124F076000BF00BF0F4F3F6807F0F0013F
:100E80000909104F7A5C0768D74047600A4F3F68EE
:100E900007F4E051890A0B4F7A5C4768D7408760B6
:100EA000054F3F6807F46041490B064F7A5C47687D
:100EB000D740C760F0BD0000083802400024F400AD
:100EC000001BB70005000020704700000CB5002093
:100ED000019000904148006840F480303F4908602C
:100EE00000BF3E48006800F4003000900198401CAC
:100EF0000190009818B90198B0F5A04FF1D137488A
:100F0000006800F4003010B10120009001E00020E2
:100F100000900098012860D130484030006840F0CF
:100F200080502E49403108602D48006840F4404010
:100F30002B490860294808300068284908310860B2
:100F40000846006840F4004008600846006840F425
:100F5000A05008602348091F0860081F006840F07F
:100F60008070091F086000BF1C48006800F0007016
:100F70000028F9D01A48006840F480301849086009
:100F800000BF1748406800F480300028F9D01448AA
:100F9000006840F400301249086000BF1048406803
:100FA00000F400300028F9D040F205700E490860C6
:100FB0000A480830006820F003000849083108603A
:100FC0000846006840F00200086000BF034808308F
:100FD000006800F00C000828F8D10CBD0038024071
:100FE000007000400C5A4007003C0240704700006F
:100FF00010B51548006840F47000134908601348A4
:10100000006840F001001149086000200F490831D4
:1010100008600E4800680E4908400C4908600D48F9
:10102000091D0860081F006820F48020091F08605F
:10103000002006490C310860FFF748FF4FF00060C0
:1010400001498039086010BD88ED00E00038024099
:10105000FFFFF6FE103000243EB505460C46012188
:101060001020FFF79DFEADF8005001940020ADF870
:101070000800ADF8020069460A4800F029F901218C
:10108000084800F0EFF80121064800F0FAF80122C4
:101090001146044800F012F9002201213620FFF722
:1010A0001CFE3EBD0010004010B501216A4800F052
:1010B000F4F8002873D069480078532801D1012042
:1010C00000E0002065494978312901D1012100E083
:1010D0000021084061498978452901D1012100E0BA
:1010E0000021084020B102215D48FFF78DFBADE0F3
:1010F0005A480078532801D1012000E000205749C8
:101100004978322901D1012100E0002108405349EA
:101110008978452901D1012100E00021084020B152
:1011200004214F48FFF770FB90E04C4800785328AB
:1011300001D1012000E0002048494978332901D13C
:10114000012100E00021084044498978452901D166
:10115000012100E00021084020B108214048FFF7AC
:1011600053FB73E03D480078532801D1012000E093
:1011700000203A494978342901D1012100E00021B9
:10118000084036498978452901D1012100E0002134
:10119000084028B110213248FFF736FB56E059E0ED
:1011A0002E480078532801D1012000E000202B496F
:1011B0004978352901D1012100E000210840274963
:1011C0008978452901D1012100E00021084020B1A2
:1011D00020212348FFF718FB38E0204800785328E7
:1011E00001D1012000E000201C494978362901D1B5
:1011F000012100E00021084018498978452901D1E2
:10120000012100E00021084020B140211448FFF7EF
:10121000FBFA1BE011480078532801D1012000E0BF
:1012200000200E494978372901D1012100E0002131
:1012300008400A498978452901D1012100E00021AF
:10124000084018B180210648FFF7DEFA0121024864
:1012500000F014F810BD0000001000401C00002039
:101260000018024021B1028842F08002028004E0AE
:1012700002884FF67F731A4002807047CA43028289
:10128000704721B1028842F00102028004E0028826
:101290004FF6FE731A400280704730B502460020B8
:1012A00000230024158A05EA0103958905EA010453
:1012B00013B10CB1012000E0002030BD1AB18389C8
:1012C0000B43838102E083898B4383817047000055
:1012D00000220288184B98420ED0184B98420BD02F
:1012E000B0F1804F08D0164B984205D0154B98426C
:1012F00002D0154B984204D14FF68F731A404B8899
:101300001A43124B984207D0114B984204D04FF623
:10131000FF431A400B891A4302804B68C3620B8853
:101320000385054B984202D0044B984201D18B7A39
:1013300003860123838270470000014000040140BE
:101340000004004000080040000C00400010004075
:101350000014004010B540F224410D4800F0E2F8BE
:10136000A0B100210B48FFF7F4F80B490BA000F0E7
:10137000B9F934210748FFF7D9F901210548FFF7EA
:10138000E8F80348001D00880148008810BD0000EF
:1013900000140140286402401C00002025730A004C
:1013A00010B586B0044601214020FFF7E9FC012179
:1013B0002020FFF705FD00208DF8160001208DF894
:1013C000170002208DF815008DF8140040030490DA
:1013D00004A91E48FFF7ADF94FF40070049004A96A
:1013E0001A48FFF7A6F908220E211848FFF7E9F975
:1013F000082209211548FFF7E4F900940020ADF810
:101400000400ADF80600ADF80800ADF80C000C20A3
:10141000ADF80A0069460E4800F0D4F80322002116
:101420004720FFF75AFC012240F22551084800F0FE
:10143000A3F8012240F22441054800F09DF8012163
:10144000034800F04DF806B010BD0000001802403F
:101450000014014030B58FB004460D4601218805C7
:10146000FFF78EFC1C48FFF77FF800BF1A48FFF714
:1014700027F90028FAD14FF020600090174801901A
:10148000029400200390049505904FF4806006902C
:101490000020079008904FF48070099000020A9095
:1014A00000200B900C900D900E9069460A48FFF7B3
:1014B00011F901210848FFF74CF800BF0648FFF773
:1014C000FFF80128FAD1012240210448001F00F052
:1014D00013F80FB030BD000028640240041401402E
:1014E00021B1828942F40052828104E082894DF662
:1014F000FF731A40828170471AB1838A0B4383823B
:1015000002E0838A8B438382704702460020B1F554
:10151000007F00D100BF13880B400BB1012000E019
:101520000020704770B502460024002300250020EB
:1015300040F66A16B14200D100BFC1F3421501F076
:101540001F03012606FA03F3012D02D196893340C9
:1015500006E0022D02D1168A334001E0968A33401C
:101560000C12012606FA04F41688344013B10CB1AB
:10157000012000E0002070BDF0B5034600240026E5
:101580000025002040F66A17B94200D100BF184676
:10159000C1F3421401F01F06012707FA06F5012CDA
:1015A00001D10C3004E0022C01D1103000E01430E5
:1015B0001AB107682F43076002E00768AF4307606E
:1015C000F0BD00002DE9FF4705460E460024A14668
:1015D00000BFA046B08900B100BF2C8A24F440545B
:1015E000F08804432C82AC8941F20C608443B088BB
:1015F00031890843718908430443AC81AC8A24F4DF
:101600004074B0890443AC826846FFF7E9FB204888
:10161000854202D01F48854202D1DDF80C9001E0DE
:10162000DDF80890A88900F4004040B109EBC9003A
:1016300000EB091031684900B0FBF1F707E009EB56
:10164000C90000EB091031688900B0FBF1F7642094
:10165000B7FBF0F004012009642101FB1078A88990
:1016600000F4004040B1322000EBC800B0FBF1F0C4
:1016700000F00700044308E0322000EB081064216A
:10168000B0FBF1F000F00F0004432C81BDE8FF87B0
:10169000001001400014014030B504460D46C5F36A
:1016A0000800A08000BF80212046FFF72EFF002801
:1016B000F9D030BD00BFFEE770B506460C460025E8
:1016C00000BF615D3046FFF7E7FF6D1C605D0028DD
:1016D000F7D100BF40213046FFF717FF0028F9D0AF
:1016E00070BD00000FB4054B10B503A9044A029861
:1016F00000F017F810BC5DF814FB0000F9170008A3
:101700001800002002E008C8121F08C1002AFAD100
:1017100070477047002001E001C1121F002AFBD171
:1017200070472DE9F84F99469246884605460027AE
:1017300006E025280AD051464A4690476D1C7F1C7A
:1017400028780028F5D13846BDE8F88F002315F831
:10175000011F18462E2915D115F8011F04232A2927
:101760000DD06FF02F022978A1F13004092C09D88F
:1017700000EB800002EB400008446D1CF3E758F8D2
:10178000040B6D1C2A78002ADDD0632A07D0732A47
:101790000FD0104651464A4690477F1C2AE018F861
:1017A000042B8DF8002000218DF801106E460121D8
:1017B00003E058F8046B4FF0FF315A074FF0000474
:1017C00001D409E0641C84420BDA8C42FADB325DFE
:1017D000002AF7D105E0641C8C42FCDB305D002858
:1017E000F9D1274404E016F8010B51464A469047C8
:1017F000641EF8D26D1CA3E770B504460D46E1B235
:1018000006480068FFF748FF00BF802103480068D2
:10181000FFF77BFE0028F8D0204670BD00000020B6
:10182000FFF7A2F800BFFEE74818000800000020FC
:101830001C00000004170008641800081C000020A9
:1018400024080000141700080014014000000000E4
:101850000001020304010203040607080900000056
:041860000000000084
:04000005080001C12D
:00000001FF
